{"contracts/EncryptionContract.sol":{"EncryptionContract":{"abi":[{"inputs":[{"internalType":"bytes32","name":"_secretKey","type":"bytes32"}],"stateMutability":"nonpayable","type":"constructor"},{"inputs":[{"internalType":"string","name":"_letter","type":"string"}],"name":"encryptLetter","outputs":[{"internalType":"bytes32","name":"","type":"bytes32"}],"stateMutability":"view","type":"function"},{"inputs":[{"internalType":"string","name":"_word","type":"string"}],"name":"encryptWord","outputs":[{"internalType":"bytes32[5]","name":"","type":"bytes32[5]"}],"stateMutability":"view","type":"function"},{"inputs":[{"internalType":"bytes32[5]","name":"_encryptedWordArray","type":"bytes32[5]"},{"internalType":"string[5]","name":"_wordArray","type":"string[5]"}],"name":"isCorrect","outputs":[{"internalType":"bool","name":"","type":"bool"}],"stateMutability":"view","type":"function"},{"inputs":[{"internalType":"string","name":"str","type":"string"}],"name":"pickCharsFromString","outputs":[{"internalType":"bytes32[5]","name":"","type":"bytes32[5]"}],"stateMutability":"view","type":"function"}],"evm":{"bytecode":{"linkReferences":{},"object":"60a060405234801561001057600080fd5b50604051610a72380380610a728339818101604052810190610032919061007b565b8060808181525050506100a8565b600080fd5b6000819050919050565b61005881610045565b811461006357600080fd5b50565b6000815190506100758161004f565b92915050565b60006020828403121561009157610090610040565b5b600061009f84828501610066565b91505092915050565b6080516109af6100c3600039600061025801526109af6000f3fe608060405234801561001057600080fd5b506004361061004c5760003560e01c8063195d7de6146100515780637b98036a1461008157806398e148d7146100b1578063afa7fe3a146100e1575b600080fd5b61006b60048036038101906100669190610421565b610111565b604051610078919061051f565b60405180910390f35b61009b60048036038101906100969190610421565b610129565b6040516100a8919061051f565b60405180910390f35b6100cb60048036038101906100c691906106eb565b6101d5565b6040516100d89190610762565b60405180910390f35b6100fb60048036038101906100f69190610421565b610253565b604051610108919061078c565b60405180910390f35b6101196102a5565b61012282610129565b9050919050565b6101316102a5565b600082905061013e6102a5565b60005b8251811080156101515750600581105b156101ca5761019b83828151811061016c5761016b6107a7565b5b602001015160f81c60f81b6040516020016101879190610823565b604051602081830303815290604052610253565b8282600581106101ae576101ad6107a7565b5b60200201818152505080806101c290610877565b915050610141565b508092505050919050565b600080600090505b60058110156102475760006102088483600581106101fe576101fd6107a7565b5b6020020151610253565b90508085836005811061021e5761021d6107a7565b5b6020020151146102335760009250505061024d565b50808061023f90610877565b9150506101dd565b50600190505b92915050565b6000817f0000000000000000000000000000000000000000000000000000000000000000604051602001610288929190610951565b604051602081830303815290604052805190602001209050919050565b6040518060a00160405280600590602082028036833780820191505090505090565b6000604051905090565b600080fd5b600080fd5b600080fd5b600080fd5b6000601f19601f8301169050919050565b7f4e487b7100000000000000000000000000000000000000000000000000000000600052604160045260246000fd5b61032e826102e5565b810181811067ffffffffffffffff8211171561034d5761034c6102f6565b5b80604052505050565b60006103606102c7565b905061036c8282610325565b919050565b600067ffffffffffffffff82111561038c5761038b6102f6565b5b610395826102e5565b9050602081019050919050565b82818337600083830152505050565b60006103c46103bf84610371565b610356565b9050828152602081018484840111156103e0576103df6102e0565b5b6103eb8482856103a2565b509392505050565b600082601f830112610408576104076102db565b5b81356104188482602086016103b1565b91505092915050565b600060208284031215610437576104366102d1565b5b600082013567ffffffffffffffff811115610455576104546102d6565b5b610461848285016103f3565b91505092915050565b600060059050919050565b600081905092915050565b6000819050919050565b6000819050919050565b61049d8161048a565b82525050565b60006104af8383610494565b60208301905092915050565b6000602082019050919050565b6104d18161046a565b6104db8184610475565b92506104e682610480565b8060005b838110156105175781516104fe87826104a3565b9650610509836104bb565b9250506001810190506104ea565b505050505050565b600060a08201905061053460008301846104c8565b92915050565b600067ffffffffffffffff821115610555576105546102f6565b5b602082029050919050565b600080fd5b61056e8161048a565b811461057957600080fd5b50565b60008135905061058b81610565565b92915050565b60006105a461059f8461053a565b610356565b905080602084028301858111156105be576105bd610560565b5b835b818110156105e757806105d3888261057c565b8452602084019350506020810190506105c0565b5050509392505050565b600082601f830112610606576106056102db565b5b6005610613848285610591565b91505092915050565b600067ffffffffffffffff821115610637576106366102f6565b5b602082029050919050565b60006106556106508461061c565b610356565b9050806020840283018581111561066f5761066e610560565b5b835b818110156106b657803567ffffffffffffffff811115610694576106936102db565b5b8086016106a189826103f3565b85526020850194505050602081019050610671565b5050509392505050565b600082601f8301126106d5576106d46102db565b5b60056106e2848285610642565b91505092915050565b60008060c08385031215610702576107016102d1565b5b6000610710858286016105f1565b92505060a083013567ffffffffffffffff811115610731576107306102d6565b5b61073d858286016106c0565b9150509250929050565b60008115159050919050565b61075c81610747565b82525050565b60006020820190506107776000830184610753565b92915050565b6107868161048a565b82525050565b60006020820190506107a1600083018461077d565b92915050565b7f4e487b7100000000000000000000000000000000000000000000000000000000600052603260045260246000fd5b60007fff0000000000000000000000000000000000000000000000000000000000000082169050919050565b6000819050919050565b61081d610818826107d6565b610802565b82525050565b600061082f828461080c565b60018201915081905092915050565b7f4e487b7100000000000000000000000000000000000000000000000000000000600052601160045260246000fd5b6000819050919050565b60006108828261086d565b91507fffffffffffffffffffffffffffffffffffffffffffffffffffffffffffffffff82036108b4576108b361083e565b5b600182019050919050565b600081519050919050565b600081905092915050565b60005b838110156108f35780820151818401526020810190506108d8565b60008484015250505050565b600061090a826108bf565b61091481856108ca565b93506109248185602086016108d5565b80840191505092915050565b6000819050919050565b61094b6109468261048a565b610930565b82525050565b600061095d82856108ff565b9150610969828461093a565b602082019150819050939250505056fea26469706673582212204da6884b8550aeeec88a4679e942f21b352ddcc546ddaaaf9cc3c0471648646e64736f6c63430008140033","opcodes":"PUSH1 0xA0 PUSH1 0x40 MSTORE CALLVALUE DUP1 ISZERO PUSH2 0x10 JUMPI PUSH1 0x0 DUP1 REVERT JUMPDEST POP PUSH1 0x40 MLOAD PUSH2 0xA72 CODESIZE SUB DUP1 PUSH2 0xA72 DUP4 CODECOPY DUP2 DUP2 ADD PUSH1 0x40 MSTORE DUP2 ADD SWAP1 PUSH2 0x32 SWAP2 SWAP1 PUSH2 0x7B JUMP JUMPDEST DUP1 PUSH1 0x80 DUP2 DUP2 MSTORE POP POP POP PUSH2 0xA8 JUMP JUMPDEST PUSH1 0x0 DUP1 REVERT JUMPDEST PUSH1 0x0 DUP2 SWAP1 POP SWAP2 SWAP1 POP JUMP JUMPDEST PUSH2 0x58 DUP2 PUSH2 0x45 JUMP JUMPDEST DUP2 EQ PUSH2 0x63 JUMPI PUSH1 0x0 DUP1 REVERT JUMPDEST POP JUMP JUMPDEST PUSH1 0x0 DUP2 MLOAD SWAP1 POP PUSH2 0x75 DUP2 PUSH2 0x4F JUMP JUMPDEST SWAP3 SWAP2 POP POP JUMP JUMPDEST PUSH1 0x0 PUSH1 0x20 DUP3 DUP5 SUB SLT ISZERO PUSH2 0x91 JUMPI PUSH2 0x90 PUSH2 0x40 JUMP JUMPDEST JUMPDEST PUSH1 0x0 PUSH2 0x9F DUP5 DUP3 DUP6 ADD PUSH2 0x66 JUMP JUMPDEST SWAP2 POP POP SWAP3 SWAP2 POP POP JUMP JUMPDEST PUSH1 0x80 MLOAD PUSH2 0x9AF PUSH2 0xC3 PUSH1 0x0 CODECOPY PUSH1 0x0 PUSH2 0x258 ADD MSTORE PUSH2 0x9AF PUSH1 0x0 RETURN INVALID PUSH1 0x80 PUSH1 0x40 MSTORE CALLVALUE DUP1 ISZERO PUSH2 0x10 JUMPI PUSH1 0x0 DUP1 REVERT JUMPDEST POP PUSH1 0x4 CALLDATASIZE LT PUSH2 0x4C JUMPI PUSH1 0x0 CALLDATALOAD PUSH1 0xE0 SHR DUP1 PUSH4 0x195D7DE6 EQ PUSH2 0x51 JUMPI DUP1 PUSH4 0x7B98036A EQ PUSH2 0x81 JUMPI DUP1 PUSH4 0x98E148D7 EQ PUSH2 0xB1 JUMPI DUP1 PUSH4 0xAFA7FE3A EQ PUSH2 0xE1 JUMPI JUMPDEST PUSH1 0x0 DUP1 REVERT JUMPDEST PUSH2 0x6B PUSH1 0x4 DUP1 CALLDATASIZE SUB DUP2 ADD SWAP1 PUSH2 0x66 SWAP2 SWAP1 PUSH2 0x421 JUMP JUMPDEST PUSH2 0x111 JUMP JUMPDEST PUSH1 0x40 MLOAD PUSH2 0x78 SWAP2 SWAP1 PUSH2 0x51F JUMP JUMPDEST PUSH1 0x40 MLOAD DUP1 SWAP2 SUB SWAP1 RETURN JUMPDEST PUSH2 0x9B PUSH1 0x4 DUP1 CALLDATASIZE SUB DUP2 ADD SWAP1 PUSH2 0x96 SWAP2 SWAP1 PUSH2 0x421 JUMP JUMPDEST PUSH2 0x129 JUMP JUMPDEST PUSH1 0x40 MLOAD PUSH2 0xA8 SWAP2 SWAP1 PUSH2 0x51F JUMP JUMPDEST PUSH1 0x40 MLOAD DUP1 SWAP2 SUB SWAP1 RETURN JUMPDEST PUSH2 0xCB PUSH1 0x4 DUP1 CALLDATASIZE SUB DUP2 ADD SWAP1 PUSH2 0xC6 SWAP2 SWAP1 PUSH2 0x6EB JUMP JUMPDEST PUSH2 0x1D5 JUMP JUMPDEST PUSH1 0x40 MLOAD PUSH2 0xD8 SWAP2 SWAP1 PUSH2 0x762 JUMP JUMPDEST PUSH1 0x40 MLOAD DUP1 SWAP2 SUB SWAP1 RETURN JUMPDEST PUSH2 0xFB PUSH1 0x4 DUP1 CALLDATASIZE SUB DUP2 ADD SWAP1 PUSH2 0xF6 SWAP2 SWAP1 PUSH2 0x421 JUMP JUMPDEST PUSH2 0x253 JUMP JUMPDEST PUSH1 0x40 MLOAD PUSH2 0x108 SWAP2 SWAP1 PUSH2 0x78C JUMP JUMPDEST PUSH1 0x40 MLOAD DUP1 SWAP2 SUB SWAP1 RETURN JUMPDEST PUSH2 0x119 PUSH2 0x2A5 JUMP JUMPDEST PUSH2 0x122 DUP3 PUSH2 0x129 JUMP JUMPDEST SWAP1 POP SWAP2 SWAP1 POP JUMP JUMPDEST PUSH2 0x131 PUSH2 0x2A5 JUMP JUMPDEST PUSH1 0x0 DUP3 SWAP1 POP PUSH2 0x13E PUSH2 0x2A5 JUMP JUMPDEST PUSH1 0x0 JUMPDEST DUP3 MLOAD DUP2 LT DUP1 ISZERO PUSH2 0x151 JUMPI POP PUSH1 0x5 DUP2 LT JUMPDEST ISZERO PUSH2 0x1CA JUMPI PUSH2 0x19B DUP4 DUP3 DUP2 MLOAD DUP2 LT PUSH2 0x16C JUMPI PUSH2 0x16B PUSH2 0x7A7 JUMP JUMPDEST JUMPDEST PUSH1 0x20 ADD ADD MLOAD PUSH1 0xF8 SHR PUSH1 0xF8 SHL PUSH1 0x40 MLOAD PUSH1 0x20 ADD PUSH2 0x187 SWAP2 SWAP1 PUSH2 0x823 JUMP JUMPDEST PUSH1 0x40 MLOAD PUSH1 0x20 DUP2 DUP4 SUB SUB DUP2 MSTORE SWAP1 PUSH1 0x40 MSTORE PUSH2 0x253 JUMP JUMPDEST DUP3 DUP3 PUSH1 0x5 DUP2 LT PUSH2 0x1AE JUMPI PUSH2 0x1AD PUSH2 0x7A7 JUMP JUMPDEST JUMPDEST PUSH1 0x20 MUL ADD DUP2 DUP2 MSTORE POP POP DUP1 DUP1 PUSH2 0x1C2 SWAP1 PUSH2 0x877 JUMP JUMPDEST SWAP2 POP POP PUSH2 0x141 JUMP JUMPDEST POP DUP1 SWAP3 POP POP POP SWAP2 SWAP1 POP JUMP JUMPDEST PUSH1 0x0 DUP1 PUSH1 0x0 SWAP1 POP JUMPDEST PUSH1 0x5 DUP2 LT ISZERO PUSH2 0x247 JUMPI PUSH1 0x0 PUSH2 0x208 DUP5 DUP4 PUSH1 0x5 DUP2 LT PUSH2 0x1FE JUMPI PUSH2 0x1FD PUSH2 0x7A7 JUMP JUMPDEST JUMPDEST PUSH1 0x20 MUL ADD MLOAD PUSH2 0x253 JUMP JUMPDEST SWAP1 POP DUP1 DUP6 DUP4 PUSH1 0x5 DUP2 LT PUSH2 0x21E JUMPI PUSH2 0x21D PUSH2 0x7A7 JUMP JUMPDEST JUMPDEST PUSH1 0x20 MUL ADD MLOAD EQ PUSH2 0x233 JUMPI PUSH1 0x0 SWAP3 POP POP POP PUSH2 0x24D JUMP JUMPDEST POP DUP1 DUP1 PUSH2 0x23F SWAP1 PUSH2 0x877 JUMP JUMPDEST SWAP2 POP POP PUSH2 0x1DD JUMP JUMPDEST POP PUSH1 0x1 SWAP1 POP JUMPDEST SWAP3 SWAP2 POP POP JUMP JUMPDEST PUSH1 0x0 DUP2 PUSH32 0x0 PUSH1 0x40 MLOAD PUSH1 0x20 ADD PUSH2 0x288 SWAP3 SWAP2 SWAP1 PUSH2 0x951 JUMP JUMPDEST PUSH1 0x40 MLOAD PUSH1 0x20 DUP2 DUP4 SUB SUB DUP2 MSTORE SWAP1 PUSH1 0x40 MSTORE DUP1 MLOAD SWAP1 PUSH1 0x20 ADD KECCAK256 SWAP1 POP SWAP2 SWAP1 POP JUMP JUMPDEST PUSH1 0x40 MLOAD DUP1 PUSH1 0xA0 ADD PUSH1 0x40 MSTORE DUP1 PUSH1 0x5 SWAP1 PUSH1 0x20 DUP3 MUL DUP1 CALLDATASIZE DUP4 CALLDATACOPY DUP1 DUP3 ADD SWAP2 POP POP SWAP1 POP POP SWAP1 JUMP JUMPDEST PUSH1 0x0 PUSH1 0x40 MLOAD SWAP1 POP SWAP1 JUMP JUMPDEST PUSH1 0x0 DUP1 REVERT JUMPDEST PUSH1 0x0 DUP1 REVERT JUMPDEST PUSH1 0x0 DUP1 REVERT JUMPDEST PUSH1 0x0 DUP1 REVERT JUMPDEST PUSH1 0x0 PUSH1 0x1F NOT PUSH1 0x1F DUP4 ADD AND SWAP1 POP SWAP2 SWAP1 POP JUMP JUMPDEST PUSH32 0x4E487B7100000000000000000000000000000000000000000000000000000000 PUSH1 0x0 MSTORE PUSH1 0x41 PUSH1 0x4 MSTORE PUSH1 0x24 PUSH1 0x0 REVERT JUMPDEST PUSH2 0x32E DUP3 PUSH2 0x2E5 JUMP JUMPDEST DUP2 ADD DUP2 DUP2 LT PUSH8 0xFFFFFFFFFFFFFFFF DUP3 GT OR ISZERO PUSH2 0x34D JUMPI PUSH2 0x34C PUSH2 0x2F6 JUMP JUMPDEST JUMPDEST DUP1 PUSH1 0x40 MSTORE POP POP POP JUMP JUMPDEST PUSH1 0x0 PUSH2 0x360 PUSH2 0x2C7 JUMP JUMPDEST SWAP1 POP PUSH2 0x36C DUP3 DUP3 PUSH2 0x325 JUMP JUMPDEST SWAP2 SWAP1 POP JUMP JUMPDEST PUSH1 0x0 PUSH8 0xFFFFFFFFFFFFFFFF DUP3 GT ISZERO PUSH2 0x38C JUMPI PUSH2 0x38B PUSH2 0x2F6 JUMP JUMPDEST JUMPDEST PUSH2 0x395 DUP3 PUSH2 0x2E5 JUMP JUMPDEST SWAP1 POP PUSH1 0x20 DUP2 ADD SWAP1 POP SWAP2 SWAP1 POP JUMP JUMPDEST DUP3 DUP2 DUP4 CALLDATACOPY PUSH1 0x0 DUP4 DUP4 ADD MSTORE POP POP POP JUMP JUMPDEST PUSH1 0x0 PUSH2 0x3C4 PUSH2 0x3BF DUP5 PUSH2 0x371 JUMP JUMPDEST PUSH2 0x356 JUMP JUMPDEST SWAP1 POP DUP3 DUP2 MSTORE PUSH1 0x20 DUP2 ADD DUP5 DUP5 DUP5 ADD GT ISZERO PUSH2 0x3E0 JUMPI PUSH2 0x3DF PUSH2 0x2E0 JUMP JUMPDEST JUMPDEST PUSH2 0x3EB DUP5 DUP3 DUP6 PUSH2 0x3A2 JUMP JUMPDEST POP SWAP4 SWAP3 POP POP POP JUMP JUMPDEST PUSH1 0x0 DUP3 PUSH1 0x1F DUP4 ADD SLT PUSH2 0x408 JUMPI PUSH2 0x407 PUSH2 0x2DB JUMP JUMPDEST JUMPDEST DUP2 CALLDATALOAD PUSH2 0x418 DUP5 DUP3 PUSH1 0x20 DUP7 ADD PUSH2 0x3B1 JUMP JUMPDEST SWAP2 POP POP SWAP3 SWAP2 POP POP JUMP JUMPDEST PUSH1 0x0 PUSH1 0x20 DUP3 DUP5 SUB SLT ISZERO PUSH2 0x437 JUMPI PUSH2 0x436 PUSH2 0x2D1 JUMP JUMPDEST JUMPDEST PUSH1 0x0 DUP3 ADD CALLDATALOAD PUSH8 0xFFFFFFFFFFFFFFFF DUP2 GT ISZERO PUSH2 0x455 JUMPI PUSH2 0x454 PUSH2 0x2D6 JUMP JUMPDEST JUMPDEST PUSH2 0x461 DUP5 DUP3 DUP6 ADD PUSH2 0x3F3 JUMP JUMPDEST SWAP2 POP POP SWAP3 SWAP2 POP POP JUMP JUMPDEST PUSH1 0x0 PUSH1 0x5 SWAP1 POP SWAP2 SWAP1 POP JUMP JUMPDEST PUSH1 0x0 DUP2 SWAP1 POP SWAP3 SWAP2 POP POP JUMP JUMPDEST PUSH1 0x0 DUP2 SWAP1 POP SWAP2 SWAP1 POP JUMP JUMPDEST PUSH1 0x0 DUP2 SWAP1 POP SWAP2 SWAP1 POP JUMP JUMPDEST PUSH2 0x49D DUP2 PUSH2 0x48A JUMP JUMPDEST DUP3 MSTORE POP POP JUMP JUMPDEST PUSH1 0x0 PUSH2 0x4AF DUP4 DUP4 PUSH2 0x494 JUMP JUMPDEST PUSH1 0x20 DUP4 ADD SWAP1 POP SWAP3 SWAP2 POP POP JUMP JUMPDEST PUSH1 0x0 PUSH1 0x20 DUP3 ADD SWAP1 POP SWAP2 SWAP1 POP JUMP JUMPDEST PUSH2 0x4D1 DUP2 PUSH2 0x46A JUMP JUMPDEST PUSH2 0x4DB DUP2 DUP5 PUSH2 0x475 JUMP JUMPDEST SWAP3 POP PUSH2 0x4E6 DUP3 PUSH2 0x480 JUMP JUMPDEST DUP1 PUSH1 0x0 JUMPDEST DUP4 DUP2 LT ISZERO PUSH2 0x517 JUMPI DUP2 MLOAD PUSH2 0x4FE DUP8 DUP3 PUSH2 0x4A3 JUMP JUMPDEST SWAP7 POP PUSH2 0x509 DUP4 PUSH2 0x4BB JUMP JUMPDEST SWAP3 POP POP PUSH1 0x1 DUP2 ADD SWAP1 POP PUSH2 0x4EA JUMP JUMPDEST POP POP POP POP POP POP JUMP JUMPDEST PUSH1 0x0 PUSH1 0xA0 DUP3 ADD SWAP1 POP PUSH2 0x534 PUSH1 0x0 DUP4 ADD DUP5 PUSH2 0x4C8 JUMP JUMPDEST SWAP3 SWAP2 POP POP JUMP JUMPDEST PUSH1 0x0 PUSH8 0xFFFFFFFFFFFFFFFF DUP3 GT ISZERO PUSH2 0x555 JUMPI PUSH2 0x554 PUSH2 0x2F6 JUMP JUMPDEST JUMPDEST PUSH1 0x20 DUP3 MUL SWAP1 POP SWAP2 SWAP1 POP JUMP JUMPDEST PUSH1 0x0 DUP1 REVERT JUMPDEST PUSH2 0x56E DUP2 PUSH2 0x48A JUMP JUMPDEST DUP2 EQ PUSH2 0x579 JUMPI PUSH1 0x0 DUP1 REVERT JUMPDEST POP JUMP JUMPDEST PUSH1 0x0 DUP2 CALLDATALOAD SWAP1 POP PUSH2 0x58B DUP2 PUSH2 0x565 JUMP JUMPDEST SWAP3 SWAP2 POP POP JUMP JUMPDEST PUSH1 0x0 PUSH2 0x5A4 PUSH2 0x59F DUP5 PUSH2 0x53A JUMP JUMPDEST PUSH2 0x356 JUMP JUMPDEST SWAP1 POP DUP1 PUSH1 0x20 DUP5 MUL DUP4 ADD DUP6 DUP2 GT ISZERO PUSH2 0x5BE JUMPI PUSH2 0x5BD PUSH2 0x560 JUMP JUMPDEST JUMPDEST DUP4 JUMPDEST DUP2 DUP2 LT ISZERO PUSH2 0x5E7 JUMPI DUP1 PUSH2 0x5D3 DUP9 DUP3 PUSH2 0x57C JUMP JUMPDEST DUP5 MSTORE PUSH1 0x20 DUP5 ADD SWAP4 POP POP PUSH1 0x20 DUP2 ADD SWAP1 POP PUSH2 0x5C0 JUMP JUMPDEST POP POP POP SWAP4 SWAP3 POP POP POP JUMP JUMPDEST PUSH1 0x0 DUP3 PUSH1 0x1F DUP4 ADD SLT PUSH2 0x606 JUMPI PUSH2 0x605 PUSH2 0x2DB JUMP JUMPDEST JUMPDEST PUSH1 0x5 PUSH2 0x613 DUP5 DUP3 DUP6 PUSH2 0x591 JUMP JUMPDEST SWAP2 POP POP SWAP3 SWAP2 POP POP JUMP JUMPDEST PUSH1 0x0 PUSH8 0xFFFFFFFFFFFFFFFF DUP3 GT ISZERO PUSH2 0x637 JUMPI PUSH2 0x636 PUSH2 0x2F6 JUMP JUMPDEST JUMPDEST PUSH1 0x20 DUP3 MUL SWAP1 POP SWAP2 SWAP1 POP JUMP JUMPDEST PUSH1 0x0 PUSH2 0x655 PUSH2 0x650 DUP5 PUSH2 0x61C JUMP JUMPDEST PUSH2 0x356 JUMP JUMPDEST SWAP1 POP DUP1 PUSH1 0x20 DUP5 MUL DUP4 ADD DUP6 DUP2 GT ISZERO PUSH2 0x66F JUMPI PUSH2 0x66E PUSH2 0x560 JUMP JUMPDEST JUMPDEST DUP4 JUMPDEST DUP2 DUP2 LT ISZERO PUSH2 0x6B6 JUMPI DUP1 CALLDATALOAD PUSH8 0xFFFFFFFFFFFFFFFF DUP2 GT ISZERO PUSH2 0x694 JUMPI PUSH2 0x693 PUSH2 0x2DB JUMP JUMPDEST JUMPDEST DUP1 DUP7 ADD PUSH2 0x6A1 DUP10 DUP3 PUSH2 0x3F3 JUMP JUMPDEST DUP6 MSTORE PUSH1 0x20 DUP6 ADD SWAP5 POP POP POP PUSH1 0x20 DUP2 ADD SWAP1 POP PUSH2 0x671 JUMP JUMPDEST POP POP POP SWAP4 SWAP3 POP POP POP JUMP JUMPDEST PUSH1 0x0 DUP3 PUSH1 0x1F DUP4 ADD SLT PUSH2 0x6D5 JUMPI PUSH2 0x6D4 PUSH2 0x2DB JUMP JUMPDEST JUMPDEST PUSH1 0x5 PUSH2 0x6E2 DUP5 DUP3 DUP6 PUSH2 0x642 JUMP JUMPDEST SWAP2 POP POP SWAP3 SWAP2 POP POP JUMP JUMPDEST PUSH1 0x0 DUP1 PUSH1 0xC0 DUP4 DUP6 SUB SLT ISZERO PUSH2 0x702 JUMPI PUSH2 0x701 PUSH2 0x2D1 JUMP JUMPDEST JUMPDEST PUSH1 0x0 PUSH2 0x710 DUP6 DUP3 DUP7 ADD PUSH2 0x5F1 JUMP JUMPDEST SWAP3 POP POP PUSH1 0xA0 DUP4 ADD CALLDATALOAD PUSH8 0xFFFFFFFFFFFFFFFF DUP2 GT ISZERO PUSH2 0x731 JUMPI PUSH2 0x730 PUSH2 0x2D6 JUMP JUMPDEST JUMPDEST PUSH2 0x73D DUP6 DUP3 DUP7 ADD PUSH2 0x6C0 JUMP JUMPDEST SWAP2 POP POP SWAP3 POP SWAP3 SWAP1 POP JUMP JUMPDEST PUSH1 0x0 DUP2 ISZERO ISZERO SWAP1 POP SWAP2 SWAP1 POP JUMP JUMPDEST PUSH2 0x75C DUP2 PUSH2 0x747 JUMP JUMPDEST DUP3 MSTORE POP POP JUMP JUMPDEST PUSH1 0x0 PUSH1 0x20 DUP3 ADD SWAP1 POP PUSH2 0x777 PUSH1 0x0 DUP4 ADD DUP5 PUSH2 0x753 JUMP JUMPDEST SWAP3 SWAP2 POP POP JUMP JUMPDEST PUSH2 0x786 DUP2 PUSH2 0x48A JUMP JUMPDEST DUP3 MSTORE POP POP JUMP JUMPDEST PUSH1 0x0 PUSH1 0x20 DUP3 ADD SWAP1 POP PUSH2 0x7A1 PUSH1 0x0 DUP4 ADD DUP5 PUSH2 0x77D JUMP JUMPDEST SWAP3 SWAP2 POP POP JUMP JUMPDEST PUSH32 0x4E487B7100000000000000000000000000000000000000000000000000000000 PUSH1 0x0 MSTORE PUSH1 0x32 PUSH1 0x4 MSTORE PUSH1 0x24 PUSH1 0x0 REVERT JUMPDEST PUSH1 0x0 PUSH32 0xFF00000000000000000000000000000000000000000000000000000000000000 DUP3 AND SWAP1 POP SWAP2 SWAP1 POP JUMP JUMPDEST PUSH1 0x0 DUP2 SWAP1 POP SWAP2 SWAP1 POP JUMP JUMPDEST PUSH2 0x81D PUSH2 0x818 DUP3 PUSH2 0x7D6 JUMP JUMPDEST PUSH2 0x802 JUMP JUMPDEST DUP3 MSTORE POP POP JUMP JUMPDEST PUSH1 0x0 PUSH2 0x82F DUP3 DUP5 PUSH2 0x80C JUMP JUMPDEST PUSH1 0x1 DUP3 ADD SWAP2 POP DUP2 SWAP1 POP SWAP3 SWAP2 POP POP JUMP JUMPDEST PUSH32 0x4E487B7100000000000000000000000000000000000000000000000000000000 PUSH1 0x0 MSTORE PUSH1 0x11 PUSH1 0x4 MSTORE PUSH1 0x24 PUSH1 0x0 REVERT JUMPDEST PUSH1 0x0 DUP2 SWAP1 POP SWAP2 SWAP1 POP JUMP JUMPDEST PUSH1 0x0 PUSH2 0x882 DUP3 PUSH2 0x86D JUMP JUMPDEST SWAP2 POP PUSH32 0xFFFFFFFFFFFFFFFFFFFFFFFFFFFFFFFFFFFFFFFFFFFFFFFFFFFFFFFFFFFFFFFF DUP3 SUB PUSH2 0x8B4 JUMPI PUSH2 0x8B3 PUSH2 0x83E JUMP JUMPDEST JUMPDEST PUSH1 0x1 DUP3 ADD SWAP1 POP SWAP2 SWAP1 POP JUMP JUMPDEST PUSH1 0x0 DUP2 MLOAD SWAP1 POP SWAP2 SWAP1 POP JUMP JUMPDEST PUSH1 0x0 DUP2 SWAP1 POP SWAP3 SWAP2 POP POP JUMP JUMPDEST PUSH1 0x0 JUMPDEST DUP4 DUP2 LT ISZERO PUSH2 0x8F3 JUMPI DUP1 DUP3 ADD MLOAD DUP2 DUP5 ADD MSTORE PUSH1 0x20 DUP2 ADD SWAP1 POP PUSH2 0x8D8 JUMP JUMPDEST PUSH1 0x0 DUP5 DUP5 ADD MSTORE POP POP POP POP JUMP JUMPDEST PUSH1 0x0 PUSH2 0x90A DUP3 PUSH2 0x8BF JUMP JUMPDEST PUSH2 0x914 DUP2 DUP6 PUSH2 0x8CA JUMP JUMPDEST SWAP4 POP PUSH2 0x924 DUP2 DUP6 PUSH1 0x20 DUP7 ADD PUSH2 0x8D5 JUMP JUMPDEST DUP1 DUP5 ADD SWAP2 POP POP SWAP3 SWAP2 POP POP JUMP JUMPDEST PUSH1 0x0 DUP2 SWAP1 POP SWAP2 SWAP1 POP JUMP JUMPDEST PUSH2 0x94B PUSH2 0x946 DUP3 PUSH2 0x48A JUMP JUMPDEST PUSH2 0x930 JUMP JUMPDEST DUP3 MSTORE POP POP JUMP JUMPDEST PUSH1 0x0 PUSH2 0x95D DUP3 DUP6 PUSH2 0x8FF JUMP JUMPDEST SWAP2 POP PUSH2 0x969 DUP3 DUP5 PUSH2 0x93A JUMP JUMPDEST PUSH1 0x20 DUP3 ADD SWAP2 POP DUP2 SWAP1 POP SWAP4 SWAP3 POP POP POP JUMP INVALID LOG2 PUSH5 0x6970667358 0x22 SLT KECCAK256 0x4D 0xA6 DUP9 0x4B DUP6 POP 0xAE 0xEE 0xC8 DUP11 CHAINID PUSH26 0xE942F21B352DDCC546DDAAAF9CC3C0471648646E64736F6C6343 STOP ADDMOD EQ STOP CALLER "},"methodIdentifiers":{"encryptLetter(string)":"afa7fe3a","encryptWord(string)":"195d7de6","isCorrect(bytes32[5],string[5])":"98e148d7","pickCharsFromString(string)":"7b98036a"}}}}}