{
  "_format": "hh-sol-artifact-1",
  "contractName": "GameContract",
  "sourceName": "contracts/GameContract.sol",
  "abi": [
    {
      "inputs": [
        {
          "internalType": "uint256",
          "name": "_rewardPercent",
          "type": "uint256"
        },
        {
          "internalType": "uint256",
          "name": "_rewardAmount",
          "type": "uint256"
        },
        {
          "internalType": "address",
          "name": "_stakingToken",
          "type": "address"
        },
        {
          "internalType": "address",
          "name": "_stakingContract",
          "type": "address"
        },
        {
          "internalType": "bytes32",
          "name": "_secretKey",
          "type": "bytes32"
        }
      ],
      "stateMutability": "nonpayable",
      "type": "constructor"
    },
    {
      "inputs": [],
      "name": "Error__AlreadyPlayed",
      "type": "error"
    },
    {
      "inputs": [],
      "name": "Error__NotPlayed",
      "type": "error"
    },
    {
      "anonymous": false,
      "inputs": [
        {
          "indexed": false,
          "internalType": "address",
          "name": "player",
          "type": "address"
        },
        {
          "indexed": false,
          "internalType": "uint256",
          "name": "startTime",
          "type": "uint256"
        },
        {
          "indexed": false,
          "internalType": "bytes32[5]",
          "name": "codedWordArray",
          "type": "bytes32[5]"
        }
      ],
      "name": "GameStarted",
      "type": "event"
    },
    {
      "anonymous": false,
      "inputs": [
        {
          "indexed": true,
          "internalType": "address",
          "name": "player",
          "type": "address"
        },
        {
          "indexed": true,
          "internalType": "bool",
          "name": "isWon",
          "type": "bool"
        },
        {
          "indexed": true,
          "internalType": "uint256",
          "name": "_amountWon",
          "type": "uint256"
        }
      ],
      "name": "PlayedGame",
      "type": "event"
    },
    {
      "inputs": [],
      "name": "REWARD_AMOUNT",
      "outputs": [
        {
          "internalType": "uint256",
          "name": "",
          "type": "uint256"
        }
      ],
      "stateMutability": "view",
      "type": "function"
    },
    {
      "inputs": [],
      "name": "REWARD_PERCENTAGE",
      "outputs": [
        {
          "internalType": "uint256",
          "name": "",
          "type": "uint256"
        }
      ],
      "stateMutability": "view",
      "type": "function"
    },
    {
      "inputs": [
        {
          "internalType": "string",
          "name": "_letter",
          "type": "string"
        }
      ],
      "name": "encryptLetter",
      "outputs": [
        {
          "internalType": "bytes32",
          "name": "",
          "type": "bytes32"
        }
      ],
      "stateMutability": "view",
      "type": "function"
    },
    {
      "inputs": [
        {
          "internalType": "string",
          "name": "_word",
          "type": "string"
        }
      ],
      "name": "encryptWord",
      "outputs": [
        {
          "internalType": "bytes32[5]",
          "name": "",
          "type": "bytes32[5]"
        }
      ],
      "stateMutability": "view",
      "type": "function"
    },
    {
      "inputs": [],
      "name": "fetchPlayerInfo",
      "outputs": [
        {
          "internalType": "bytes32[5]",
          "name": "",
          "type": "bytes32[5]"
        },
        {
          "internalType": "uint256",
          "name": "",
          "type": "uint256"
        }
      ],
      "stateMutability": "view",
      "type": "function"
    },
    {
      "inputs": [],
      "name": "fetchWinners",
      "outputs": [
        {
          "internalType": "address[]",
          "name": "",
          "type": "address[]"
        }
      ],
      "stateMutability": "view",
      "type": "function"
    },
    {
      "inputs": [
        {
          "internalType": "bytes32[5]",
          "name": "_encryptedWordArray",
          "type": "bytes32[5]"
        },
        {
          "internalType": "string[5]",
          "name": "_wordArray",
          "type": "string[5]"
        }
      ],
      "name": "isCorrect",
      "outputs": [
        {
          "internalType": "bool",
          "name": "",
          "type": "bool"
        }
      ],
      "stateMutability": "view",
      "type": "function"
    },
    {
      "inputs": [
        {
          "internalType": "string",
          "name": "str",
          "type": "string"
        }
      ],
      "name": "pickCharsFromString",
      "outputs": [
        {
          "internalType": "bytes32[5]",
          "name": "",
          "type": "bytes32[5]"
        }
      ],
      "stateMutability": "view",
      "type": "function"
    },
    {
      "inputs": [
        {
          "internalType": "bytes32[5]",
          "name": "_encryptedWordArray",
          "type": "bytes32[5]"
        },
        {
          "internalType": "string[5]",
          "name": "_wordArray",
          "type": "string[5]"
        }
      ],
      "name": "playedGame",
      "outputs": [
        {
          "internalType": "bool",
          "name": "",
          "type": "bool"
        }
      ],
      "stateMutability": "nonpayable",
      "type": "function"
    },
    {
      "inputs": [],
      "name": "s_stakingContract",
      "outputs": [
        {
          "internalType": "contract IStaking",
          "name": "",
          "type": "address"
        }
      ],
      "stateMutability": "view",
      "type": "function"
    },
    {
      "inputs": [],
      "name": "s_stakingToken",
      "outputs": [
        {
          "internalType": "contract IERC20",
          "name": "",
          "type": "address"
        }
      ],
      "stateMutability": "view",
      "type": "function"
    },
    {
      "inputs": [
        {
          "internalType": "bytes32[5]",
          "name": "_codedWordArray",
          "type": "bytes32[5]"
        }
      ],
      "name": "startGame",
      "outputs": [],
      "stateMutability": "nonpayable",
      "type": "function"
    }
  ],
  "bytecode": "0x6101206040523480156200001257600080fd5b5060405162001917380380620019178339818101604052810190620000389190620001a6565b808060808181525050508460e081815250508360c081815250508273ffffffffffffffffffffffffffffffffffffffff1660a08173ffffffffffffffffffffffffffffffffffffffff16815250508173ffffffffffffffffffffffffffffffffffffffff166101008173ffffffffffffffffffffffffffffffffffffffff168152505050505050506200022e565b600080fd5b6000819050919050565b620000e081620000cb565b8114620000ec57600080fd5b50565b6000815190506200010081620000d5565b92915050565b600073ffffffffffffffffffffffffffffffffffffffff82169050919050565b6000620001338262000106565b9050919050565b620001458162000126565b81146200015157600080fd5b50565b60008151905062000165816200013a565b92915050565b6000819050919050565b62000180816200016b565b81146200018c57600080fd5b50565b600081519050620001a08162000175565b92915050565b600080600080600060a08688031215620001c557620001c4620000c6565b5b6000620001d588828901620000ef565b9550506020620001e888828901620000ef565b9450506040620001fb8882890162000154565b93505060606200020e8882890162000154565b925050608062000221888289016200018f565b9150509295509295909350565b60805160a05160c05160e0516101005161167a6200029d6000396000818161035701526108af0152600081816103f80152610a97015260008181610582015281816106050152610a7301526000818161042f0152818161054501526109fd01526000610a24015261167a6000f3fe608060405234801561001057600080fd5b50600436106100b45760003560e01c80637b98036a116100715780637b98036a1461019057806398e148d7146101c0578063adca9b72146101f0578063afa7fe3a1461020e578063cf8494421461023e578063fc72b1ed1461025c576100b4565b8063195d7de6146100b957806324c86155146100e95780632c5298111461011957806333681bcd1461013557806342ee6a521461015357806344aaaca414610172575b600080fd5b6100d360048036038101906100ce9190610c92565b61027a565b6040516100e09190610d90565b60405180910390f35b61010360048036038101906100fe9190610f5c565b610292565b6040516101109190610fd3565b60405180910390f35b610133600480360381019061012e9190610fee565b61067e565b005b61013d61074f565b60405161014a919061110b565b60405180910390f35b61015b6107dd565b604051610169929190611146565b60405180910390f35b61017a6108ad565b60405161018791906111ce565b60405180910390f35b6101aa60048036038101906101a59190610c92565b6108d1565b6040516101b79190610d90565b60405180910390f35b6101da60048036038101906101d59190610f5c565b61097d565b6040516101e79190610fd3565b60405180910390f35b6101f86109fb565b604051610205919061120a565b60405180910390f35b61022860048036038101906102239190610c92565b610a1f565b6040516102359190611234565b60405180910390f35b610246610a71565b604051610253919061124f565b60405180910390f35b610264610a95565b604051610271919061124f565b60405180910390f35b610282610ab9565b61028b826108d1565b9050919050565b60008042036102cd576040517f39fe881300000000000000000000000000000000000000000000000000000000815260040160405180910390fd5b62015180600260003373ffffffffffffffffffffffffffffffffffffffff1673ffffffffffffffffffffffffffffffffffffffff1681526020019081526020016000205461031b9190611299565b4210610353576040517f57c6b63600000000000000000000000000000000000000000000000000000000815260040160405180910390fd5b60007f000000000000000000000000000000000000000000000000000000000000000073ffffffffffffffffffffffffffffffffffffffff1663399080ec336040518263ffffffff1660e01b81526004016103ae91906112dc565b602060405180830381865afa1580156103cb573d6000803e3d6000fd5b505050506040513d601f19601f820116820180604052508101906103ef9190611323565b905060006064827f00000000000000000000000000000000000000000000000000000000000000006104219190611350565b61042b91906113c1565b90507f000000000000000000000000000000000000000000000000000000000000000073ffffffffffffffffffffffffffffffffffffffff1663a9059cbb33836040518363ffffffff1660e01b81526004016104889291906113f2565b6020604051808303816000875af11580156104a7573d6000803e3d6000fd5b505050506040513d601f19601f820116820180604052508101906104cb9190611447565b5060006104d8868661097d565b90508015610603576000339080600181540180825580915050600190039060005260206000200160009091909190916101000a81548173ffffffffffffffffffffffffffffffffffffffff021916908373ffffffffffffffffffffffffffffffffffffffff1602179055507f000000000000000000000000000000000000000000000000000000000000000073ffffffffffffffffffffffffffffffffffffffff1663a9059cbb337f00000000000000000000000000000000000000000000000000000000000000006040518363ffffffff1660e01b81526004016105be9291906113f2565b6020604051808303816000875af11580156105dd573d6000803e3d6000fd5b505050506040513d601f19601f820116820180604052508101906106019190611447565b505b7f00000000000000000000000000000000000000000000000000000000000000008261062f9190611299565b8115153373ffffffffffffffffffffffffffffffffffffffff167fbde6b4006abec5676f0f65e3aa881d1e2ce3fb81208600b3100c098aa1ead85760405160405180910390a450505092915050565b80600160003373ffffffffffffffffffffffffffffffffffffffff1673ffffffffffffffffffffffffffffffffffffffff1681526020019081526020016000209060056106cc929190610adb565b5042600260003373ffffffffffffffffffffffffffffffffffffffff1673ffffffffffffffffffffffffffffffffffffffff168152602001908152602001600020819055507faef0990e18bf796cb83e8b7e3574a3eff1ab0c92f8a8035b3cc66cda603f591233428360405161074493929190611474565b60405180910390a150565b606060008054806020026020016040519081016040528092919081815260200182805480156107d357602002820191906000526020600020905b8160009054906101000a900473ffffffffffffffffffffffffffffffffffffffff1673ffffffffffffffffffffffffffffffffffffffff1681526020019060010190808311610789575b5050505050905090565b6107e5610ab9565b6000600160003373ffffffffffffffffffffffffffffffffffffffff1673ffffffffffffffffffffffffffffffffffffffff168152602001908152602001600020600260003373ffffffffffffffffffffffffffffffffffffffff1673ffffffffffffffffffffffffffffffffffffffff168152602001908152602001600020548160058060200260405190810160405280929190826005801561089e576020028201915b81548152602001906001019080831161088a575b50505050509150915091509091565b7f000000000000000000000000000000000000000000000000000000000000000081565b6108d9610ab9565b60008290506108e6610ab9565b60005b8251811080156108f95750600581105b1561097257610943838281518110610914576109136114ab565b5b602001015160f81c60f81b60405160200161092f9190611527565b604051602081830303815290604052610a1f565b828260058110610956576109556114ab565b5b602002018181525050808061096a90611542565b9150506108e9565b508092505050919050565b600080600090505b60058110156109ef5760006109b08483600581106109a6576109a56114ab565b5b6020020151610a1f565b9050808583600581106109c6576109c56114ab565b5b6020020151146109db576000925050506109f5565b5080806109e790611542565b915050610985565b50600190505b92915050565b7f000000000000000000000000000000000000000000000000000000000000000081565b6000817f0000000000000000000000000000000000000000000000000000000000000000604051602001610a5492919061161c565b604051602081830303815290604052805190602001209050919050565b7f000000000000000000000000000000000000000000000000000000000000000081565b7f000000000000000000000000000000000000000000000000000000000000000081565b6040518060a00160405280600590602082028036833780820191505090505090565b8260058101928215610b0a579160200282015b82811115610b09578251825591602001919060010190610aee565b5b509050610b179190610b1b565b5090565b5b80821115610b34576000816000905550600101610b1c565b5090565b6000604051905090565b600080fd5b600080fd5b600080fd5b600080fd5b6000601f19601f8301169050919050565b7f4e487b7100000000000000000000000000000000000000000000000000000000600052604160045260246000fd5b610b9f82610b56565b810181811067ffffffffffffffff82111715610bbe57610bbd610b67565b5b80604052505050565b6000610bd1610b38565b9050610bdd8282610b96565b919050565b600067ffffffffffffffff821115610bfd57610bfc610b67565b5b610c0682610b56565b9050602081019050919050565b82818337600083830152505050565b6000610c35610c3084610be2565b610bc7565b905082815260208101848484011115610c5157610c50610b51565b5b610c5c848285610c13565b509392505050565b600082601f830112610c7957610c78610b4c565b5b8135610c89848260208601610c22565b91505092915050565b600060208284031215610ca857610ca7610b42565b5b600082013567ffffffffffffffff811115610cc657610cc5610b47565b5b610cd284828501610c64565b91505092915050565b600060059050919050565b600081905092915050565b6000819050919050565b6000819050919050565b610d0e81610cfb565b82525050565b6000610d208383610d05565b60208301905092915050565b6000602082019050919050565b610d4281610cdb565b610d4c8184610ce6565b9250610d5782610cf1565b8060005b83811015610d88578151610d6f8782610d14565b9650610d7a83610d2c565b925050600181019050610d5b565b505050505050565b600060a082019050610da56000830184610d39565b92915050565b600067ffffffffffffffff821115610dc657610dc5610b67565b5b602082029050919050565b600080fd5b610ddf81610cfb565b8114610dea57600080fd5b50565b600081359050610dfc81610dd6565b92915050565b6000610e15610e1084610dab565b610bc7565b90508060208402830185811115610e2f57610e2e610dd1565b5b835b81811015610e585780610e448882610ded565b845260208401935050602081019050610e31565b5050509392505050565b600082601f830112610e7757610e76610b4c565b5b6005610e84848285610e02565b91505092915050565b600067ffffffffffffffff821115610ea857610ea7610b67565b5b602082029050919050565b6000610ec6610ec184610e8d565b610bc7565b90508060208402830185811115610ee057610edf610dd1565b5b835b81811015610f2757803567ffffffffffffffff811115610f0557610f04610b4c565b5b808601610f128982610c64565b85526020850194505050602081019050610ee2565b5050509392505050565b600082601f830112610f4657610f45610b4c565b5b6005610f53848285610eb3565b91505092915050565b60008060c08385031215610f7357610f72610b42565b5b6000610f8185828601610e62565b92505060a083013567ffffffffffffffff811115610fa257610fa1610b47565b5b610fae85828601610f31565b9150509250929050565b60008115159050919050565b610fcd81610fb8565b82525050565b6000602082019050610fe86000830184610fc4565b92915050565b600060a0828403121561100457611003610b42565b5b600061101284828501610e62565b91505092915050565b600081519050919050565b600082825260208201905092915050565b6000819050602082019050919050565b600073ffffffffffffffffffffffffffffffffffffffff82169050919050565b600061107282611047565b9050919050565b61108281611067565b82525050565b60006110948383611079565b60208301905092915050565b6000602082019050919050565b60006110b88261101b565b6110c28185611026565b93506110cd83611037565b8060005b838110156110fe5781516110e58882611088565b97506110f0836110a0565b9250506001810190506110d1565b5085935050505092915050565b6000602082019050818103600083015261112581846110ad565b905092915050565b6000819050919050565b6111408161112d565b82525050565b600060c08201905061115b6000830185610d39565b61116860a0830184611137565b9392505050565b6000819050919050565b600061119461118f61118a84611047565b61116f565b611047565b9050919050565b60006111a682611179565b9050919050565b60006111b88261119b565b9050919050565b6111c8816111ad565b82525050565b60006020820190506111e360008301846111bf565b92915050565b60006111f48261119b565b9050919050565b611204816111e9565b82525050565b600060208201905061121f60008301846111fb565b92915050565b61122e81610cfb565b82525050565b60006020820190506112496000830184611225565b92915050565b60006020820190506112646000830184611137565b92915050565b7f4e487b7100000000000000000000000000000000000000000000000000000000600052601160045260246000fd5b60006112a48261112d565b91506112af8361112d565b92508282019050808211156112c7576112c661126a565b5b92915050565b6112d681611067565b82525050565b60006020820190506112f160008301846112cd565b92915050565b6113008161112d565b811461130b57600080fd5b50565b60008151905061131d816112f7565b92915050565b60006020828403121561133957611338610b42565b5b60006113478482850161130e565b91505092915050565b600061135b8261112d565b91506113668361112d565b92508282026113748161112d565b9150828204841483151761138b5761138a61126a565b5b5092915050565b7f4e487b7100000000000000000000000000000000000000000000000000000000600052601260045260246000fd5b60006113cc8261112d565b91506113d78361112d565b9250826113e7576113e6611392565b5b828204905092915050565b600060408201905061140760008301856112cd565b6114146020830184611137565b9392505050565b61142481610fb8565b811461142f57600080fd5b50565b6000815190506114418161141b565b92915050565b60006020828403121561145d5761145c610b42565b5b600061146b84828501611432565b91505092915050565b600060e08201905061148960008301866112cd565b6114966020830185611137565b6114a36040830184610d39565b949350505050565b7f4e487b7100000000000000000000000000000000000000000000000000000000600052603260045260246000fd5b60007fff0000000000000000000000000000000000000000000000000000000000000082169050919050565b6000819050919050565b61152161151c826114da565b611506565b82525050565b60006115338284611510565b60018201915081905092915050565b600061154d8261112d565b91507fffffffffffffffffffffffffffffffffffffffffffffffffffffffffffffffff820361157f5761157e61126a565b5b600182019050919050565b600081519050919050565b600081905092915050565b60005b838110156115be5780820151818401526020810190506115a3565b60008484015250505050565b60006115d58261158a565b6115df8185611595565b93506115ef8185602086016115a0565b80840191505092915050565b6000819050919050565b61161661161182610cfb565b6115fb565b82525050565b600061162882856115ca565b91506116348284611605565b602082019150819050939250505056fea26469706673582212207550b8a30b0b6e63e43eda5c84eaf70990e9ac83531d63cee6a46baf7f95557f64736f6c63430008140033",
  "linkReferences": {},
  "deployedLinkReferences": {}
}