{
  "_format": "hh-sol-artifact-1",
  "contractName": "RewardItem",
  "sourceName": "contracts/RewardToken.sol",
  "abi": [
    {
      "inputs": [],
      "stateMutability": "nonpayable",
      "type": "constructor"
    },
    {
      "anonymous": false,
      "inputs": [
        {
          "indexed": true,
          "internalType": "address",
          "name": "owner",
          "type": "address"
        },
        {
          "indexed": true,
          "internalType": "address",
          "name": "approved",
          "type": "address"
        },
        {
          "indexed": true,
          "internalType": "uint256",
          "name": "tokenId",
          "type": "uint256"
        }
      ],
      "name": "Approval",
      "type": "event"
    },
    {
      "anonymous": false,
      "inputs": [
        {
          "indexed": true,
          "internalType": "address",
          "name": "owner",
          "type": "address"
        },
        {
          "indexed": true,
          "internalType": "address",
          "name": "operator",
          "type": "address"
        },
        {
          "indexed": false,
          "internalType": "bool",
          "name": "approved",
          "type": "bool"
        }
      ],
      "name": "ApprovalForAll",
      "type": "event"
    },
    {
      "anonymous": false,
      "inputs": [
        {
          "indexed": false,
          "internalType": "uint256",
          "name": "_fromTokenId",
          "type": "uint256"
        },
        {
          "indexed": false,
          "internalType": "uint256",
          "name": "_toTokenId",
          "type": "uint256"
        }
      ],
      "name": "BatchMetadataUpdate",
      "type": "event"
    },
    {
      "anonymous": false,
      "inputs": [
        {
          "indexed": false,
          "internalType": "uint256",
          "name": "_tokenId",
          "type": "uint256"
        }
      ],
      "name": "MetadataUpdate",
      "type": "event"
    },
    {
      "anonymous": false,
      "inputs": [
        {
          "indexed": true,
          "internalType": "address",
          "name": "from",
          "type": "address"
        },
        {
          "indexed": true,
          "internalType": "address",
          "name": "to",
          "type": "address"
        },
        {
          "indexed": true,
          "internalType": "uint256",
          "name": "tokenId",
          "type": "uint256"
        }
      ],
      "name": "Transfer",
      "type": "event"
    },
    {
      "inputs": [
        {
          "internalType": "address",
          "name": "to",
          "type": "address"
        },
        {
          "internalType": "uint256",
          "name": "tokenId",
          "type": "uint256"
        }
      ],
      "name": "approve",
      "outputs": [],
      "stateMutability": "nonpayable",
      "type": "function"
    },
    {
      "inputs": [
        {
          "internalType": "address",
          "name": "player",
          "type": "address"
        },
        {
          "internalType": "string",
          "name": "_tokenURI",
          "type": "string"
        }
      ],
      "name": "awardItem",
      "outputs": [
        {
          "internalType": "uint256",
          "name": "",
          "type": "uint256"
        }
      ],
      "stateMutability": "nonpayable",
      "type": "function"
    },
    {
      "inputs": [
        {
          "internalType": "address",
          "name": "owner",
          "type": "address"
        }
      ],
      "name": "balanceOf",
      "outputs": [
        {
          "internalType": "uint256",
          "name": "",
          "type": "uint256"
        }
      ],
      "stateMutability": "view",
      "type": "function"
    },
    {
      "inputs": [
        {
          "internalType": "uint256",
          "name": "tokenId",
          "type": "uint256"
        }
      ],
      "name": "getApproved",
      "outputs": [
        {
          "internalType": "address",
          "name": "",
          "type": "address"
        }
      ],
      "stateMutability": "view",
      "type": "function"
    },
    {
      "inputs": [
        {
          "internalType": "address",
          "name": "owner",
          "type": "address"
        },
        {
          "internalType": "address",
          "name": "operator",
          "type": "address"
        }
      ],
      "name": "isApprovedForAll",
      "outputs": [
        {
          "internalType": "bool",
          "name": "",
          "type": "bool"
        }
      ],
      "stateMutability": "view",
      "type": "function"
    },
    {
      "inputs": [],
      "name": "name",
      "outputs": [
        {
          "internalType": "string",
          "name": "",
          "type": "string"
        }
      ],
      "stateMutability": "view",
      "type": "function"
    },
    {
      "inputs": [
        {
          "internalType": "uint256",
          "name": "tokenId",
          "type": "uint256"
        }
      ],
      "name": "ownerOf",
      "outputs": [
        {
          "internalType": "address",
          "name": "",
          "type": "address"
        }
      ],
      "stateMutability": "view",
      "type": "function"
    },
    {
      "inputs": [
        {
          "internalType": "uint256",
          "name": "itemId",
          "type": "uint256"
        }
      ],
      "name": "redeemItem",
      "outputs": [
        {
          "internalType": "bool",
          "name": "",
          "type": "bool"
        }
      ],
      "stateMutability": "nonpayable",
      "type": "function"
    },
    {
      "inputs": [
        {
          "internalType": "address",
          "name": "from",
          "type": "address"
        },
        {
          "internalType": "address",
          "name": "to",
          "type": "address"
        },
        {
          "internalType": "uint256",
          "name": "tokenId",
          "type": "uint256"
        }
      ],
      "name": "safeTransferFrom",
      "outputs": [],
      "stateMutability": "nonpayable",
      "type": "function"
    },
    {
      "inputs": [
        {
          "internalType": "address",
          "name": "from",
          "type": "address"
        },
        {
          "internalType": "address",
          "name": "to",
          "type": "address"
        },
        {
          "internalType": "uint256",
          "name": "tokenId",
          "type": "uint256"
        },
        {
          "internalType": "bytes",
          "name": "data",
          "type": "bytes"
        }
      ],
      "name": "safeTransferFrom",
      "outputs": [],
      "stateMutability": "nonpayable",
      "type": "function"
    },
    {
      "inputs": [
        {
          "internalType": "address",
          "name": "operator",
          "type": "address"
        },
        {
          "internalType": "bool",
          "name": "approved",
          "type": "bool"
        }
      ],
      "name": "setApprovalForAll",
      "outputs": [],
      "stateMutability": "nonpayable",
      "type": "function"
    },
    {
      "inputs": [
        {
          "internalType": "bytes4",
          "name": "interfaceId",
          "type": "bytes4"
        }
      ],
      "name": "supportsInterface",
      "outputs": [
        {
          "internalType": "bool",
          "name": "",
          "type": "bool"
        }
      ],
      "stateMutability": "view",
      "type": "function"
    },
    {
      "inputs": [],
      "name": "symbol",
      "outputs": [
        {
          "internalType": "string",
          "name": "",
          "type": "string"
        }
      ],
      "stateMutability": "view",
      "type": "function"
    },
    {
      "inputs": [
        {
          "internalType": "uint256",
          "name": "tokenId",
          "type": "uint256"
        }
      ],
      "name": "tokenURI",
      "outputs": [
        {
          "internalType": "string",
          "name": "",
          "type": "string"
        }
      ],
      "stateMutability": "view",
      "type": "function"
    },
    {
      "inputs": [
        {
          "internalType": "address",
          "name": "from",
          "type": "address"
        },
        {
          "internalType": "address",
          "name": "to",
          "type": "address"
        },
        {
          "internalType": "uint256",
          "name": "tokenId",
          "type": "uint256"
        }
      ],
      "name": "transferFrom",
      "outputs": [],
      "stateMutability": "nonpayable",
      "type": "function"
    }
  ],
  "bytecode": "0x60806040523480156200001157600080fd5b506040518060400160405280600a81526020017f5265776172644974656d000000000000000000000000000000000000000000008152506040518060400160405280600281526020017f545700000000000000000000000000000000000000000000000000000000000081525081600090816200008f919062000324565b508060019081620000a1919062000324565b5050506200040b565b600081519050919050565b7f4e487b7100000000000000000000000000000000000000000000000000000000600052604160045260246000fd5b7f4e487b7100000000000000000000000000000000000000000000000000000000600052602260045260246000fd5b600060028204905060018216806200012c57607f821691505b602082108103620001425762000141620000e4565b5b50919050565b60008190508160005260206000209050919050565b60006020601f8301049050919050565b600082821b905092915050565b600060088302620001ac7fffffffffffffffffffffffffffffffffffffffffffffffffffffffffffffffff826200016d565b620001b886836200016d565b95508019841693508086168417925050509392505050565b6000819050919050565b6000819050919050565b600062000205620001ff620001f984620001d0565b620001da565b620001d0565b9050919050565b6000819050919050565b6200022183620001e4565b6200023962000230826200020c565b8484546200017a565b825550505050565b600090565b6200025062000241565b6200025d81848462000216565b505050565b5b8181101562000285576200027960008262000246565b60018101905062000263565b5050565b601f821115620002d4576200029e8162000148565b620002a9846200015d565b81016020851015620002b9578190505b620002d1620002c8856200015d565b83018262000262565b50505b505050565b600082821c905092915050565b6000620002f960001984600802620002d9565b1980831691505092915050565b6000620003148383620002e6565b9150826002028217905092915050565b6200032f82620000aa565b67ffffffffffffffff8111156200034b576200034a620000b5565b5b62000357825462000113565b6200036482828562000289565b600060209050601f8311600181146200039c576000841562000387578287015190505b62000393858262000306565b86555062000403565b601f198416620003ac8662000148565b60005b82811015620003d657848901518255600182019150602085019450602081019050620003af565b86831015620003f65784890151620003f2601f891682620002e6565b8355505b6001600288020188555050505b505050505050565b612ecd806200041b6000396000f3fe608060405234801561001057600080fd5b50600436106100f55760003560e01c80636352211e11610097578063b88d4fde11610066578063b88d4fde14610296578063c87b56dd146102b2578063cf378343146102e2578063e985e9c514610312576100f5565b80636352211e146101fc57806370a082311461022c57806395d89b411461025c578063a22cb4651461027a576100f5565b8063095ea7b3116100d3578063095ea7b3146101785780631c26dc231461019457806323b872dd146101c457806342842e0e146101e0576100f5565b806301ffc9a7146100fa57806306fdde031461012a578063081812fc14610148575b600080fd5b610114600480360381019061010f9190611ce4565b610342565b6040516101219190611d2c565b60405180910390f35b6101326103a3565b60405161013f9190611dd7565b60405180910390f35b610162600480360381019061015d9190611e2f565b610435565b60405161016f9190611e9d565b60405180910390f35b610192600480360381019061018d9190611ee4565b61047b565b005b6101ae60048036038101906101a99190611e2f565b610592565b6040516101bb9190611d2c565b60405180910390f35b6101de60048036038101906101d99190611f24565b610664565b005b6101fa60048036038101906101f59190611f24565b6106c4565b005b61021660048036038101906102119190611e2f565b6106e4565b6040516102239190611e9d565b60405180910390f35b61024660048036038101906102419190611f77565b61076a565b6040516102539190611fb3565b60405180910390f35b610264610821565b6040516102719190611dd7565b60405180910390f35b610294600480360381019061028f9190611ffa565b6108b3565b005b6102b060048036038101906102ab919061216f565b6108c9565b005b6102cc60048036038101906102c79190611e2f565b61092b565b6040516102d99190611dd7565b60405180910390f35b6102fc60048036038101906102f79190612293565b610a3d565b6040516103099190611fb3565b60405180910390f35b61032c600480360381019061032791906122ef565b610a7f565b6040516103399190611d2c565b60405180910390f35b6000634906490660e01b7bffffffffffffffffffffffffffffffffffffffffffffffffffffffff1916827bffffffffffffffffffffffffffffffffffffffffffffffffffffffff1916148061039c575061039b82610b13565b5b9050919050565b6060600080546103b29061235e565b80601f01602080910402602001604051908101604052809291908181526020018280546103de9061235e565b801561042b5780601f106104005761010080835404028352916020019161042b565b820191906000526020600020905b81548152906001019060200180831161040e57829003601f168201915b5050505050905090565b600061044082610bf5565b6004600083815260200190815260200160002060009054906101000a900473ffffffffffffffffffffffffffffffffffffffff169050919050565b6000610486826106e4565b90508073ffffffffffffffffffffffffffffffffffffffff168373ffffffffffffffffffffffffffffffffffffffff16036104f6576040517f08c379a00000000000000000000000000000000000000000000000000000000081526004016104ed90612401565b60405180910390fd5b8073ffffffffffffffffffffffffffffffffffffffff16610515610c40565b73ffffffffffffffffffffffffffffffffffffffff16148061054457506105438161053e610c40565b610a7f565b5b610583576040517f08c379a000000000000000000000000000000000000000000000000000000000815260040161057a90612493565b60405180910390fd5b61058d8383610c48565b505050565b600061059d82610d01565b6105dc576040517f08c379a00000000000000000000000000000000000000000000000000000000081526004016105d3906124ff565b60405180910390fd5b3373ffffffffffffffffffffffffffffffffffffffff166105fc836106e4565b73ffffffffffffffffffffffffffffffffffffffff1614610652576040517f08c379a00000000000000000000000000000000000000000000000000000000081526004016106499061256b565b60405180910390fd5b61065b82610d42565b60019050919050565b61067561066f610c40565b82610d95565b6106b4576040517f08c379a00000000000000000000000000000000000000000000000000000000081526004016106ab906125fd565b60405180910390fd5b6106bf838383610e2a565b505050565b6106df838383604051806020016040528060008152506108c9565b505050565b6000806106f083611123565b9050600073ffffffffffffffffffffffffffffffffffffffff168173ffffffffffffffffffffffffffffffffffffffff1603610761576040517f08c379a000000000000000000000000000000000000000000000000000000000815260040161075890612669565b60405180910390fd5b80915050919050565b60008073ffffffffffffffffffffffffffffffffffffffff168273ffffffffffffffffffffffffffffffffffffffff16036107da576040517f08c379a00000000000000000000000000000000000000000000000000000000081526004016107d1906126fb565b60405180910390fd5b600360008373ffffffffffffffffffffffffffffffffffffffff1673ffffffffffffffffffffffffffffffffffffffff168152602001908152602001600020549050919050565b6060600180546108309061235e565b80601f016020809104026020016040519081016040528092919081815260200182805461085c9061235e565b80156108a95780601f1061087e576101008083540402835291602001916108a9565b820191906000526020600020905b81548152906001019060200180831161088c57829003601f168201915b5050505050905090565b6108c56108be610c40565b8383611160565b5050565b6108da6108d4610c40565b83610d95565b610919576040517f08c379a0000000000000000000000000000000000000000000000000000000008152600401610910906125fd565b60405180910390fd5b610925848484846112cc565b50505050565b606061093682610bf5565b60006006600084815260200190815260200160002080546109569061235e565b80601f01602080910402602001604051908101604052809291908181526020018280546109829061235e565b80156109cf5780601f106109a4576101008083540402835291602001916109cf565b820191906000526020600020905b8154815290600101906020018083116109b257829003601f168201915b5050505050905060006109e0611328565b905060008151036109f5578192505050610a38565b600082511115610a2a578082604051602001610a12929190612757565b60405160208183030381529060405292505050610a38565b610a338461133f565b925050505b919050565b6000610a4960076113a7565b6000610a5560076113bd565b9050610a6184826113cb565b610a6b81846115e8565b610a7560076113a7565b8091505092915050565b6000600560008473ffffffffffffffffffffffffffffffffffffffff1673ffffffffffffffffffffffffffffffffffffffff16815260200190815260200160002060008373ffffffffffffffffffffffffffffffffffffffff1673ffffffffffffffffffffffffffffffffffffffff16815260200190815260200160002060009054906101000a900460ff16905092915050565b60007f80ac58cd000000000000000000000000000000000000000000000000000000007bffffffffffffffffffffffffffffffffffffffffffffffffffffffff1916827bffffffffffffffffffffffffffffffffffffffffffffffffffffffff19161480610bde57507f5b5e139f000000000000000000000000000000000000000000000000000000007bffffffffffffffffffffffffffffffffffffffffffffffffffffffff1916827bffffffffffffffffffffffffffffffffffffffffffffffffffffffff1916145b80610bee5750610bed8261168c565b5b9050919050565b610bfe81610d01565b610c3d576040517f08c379a0000000000000000000000000000000000000000000000000000000008152600401610c3490612669565b60405180910390fd5b50565b600033905090565b816004600083815260200190815260200160002060006101000a81548173ffffffffffffffffffffffffffffffffffffffff021916908373ffffffffffffffffffffffffffffffffffffffff160217905550808273ffffffffffffffffffffffffffffffffffffffff16610cbb836106e4565b73ffffffffffffffffffffffffffffffffffffffff167f8c5be1e5ebec7d5bd14f71427d1e84f3dd0314c0f7b2291e5b200ac8c7c3b92560405160405180910390a45050565b60008073ffffffffffffffffffffffffffffffffffffffff16610d2383611123565b73ffffffffffffffffffffffffffffffffffffffff1614159050919050565b610d4b816116f6565b6000600660008381526020019081526020016000208054610d6b9061235e565b905014610d9257600660008281526020019081526020016000206000610d919190611c1b565b5b50565b600080610da1836106e4565b90508073ffffffffffffffffffffffffffffffffffffffff168473ffffffffffffffffffffffffffffffffffffffff161480610de35750610de28185610a7f565b5b80610e2157508373ffffffffffffffffffffffffffffffffffffffff16610e0984610435565b73ffffffffffffffffffffffffffffffffffffffff16145b91505092915050565b8273ffffffffffffffffffffffffffffffffffffffff16610e4a826106e4565b73ffffffffffffffffffffffffffffffffffffffff1614610ea0576040517f08c379a0000000000000000000000000000000000000000000000000000000008152600401610e97906127ed565b60405180910390fd5b600073ffffffffffffffffffffffffffffffffffffffff168273ffffffffffffffffffffffffffffffffffffffff1603610f0f576040517f08c379a0000000000000000000000000000000000000000000000000000000008152600401610f069061287f565b60405180910390fd5b610f1c8383836001611844565b8273ffffffffffffffffffffffffffffffffffffffff16610f3c826106e4565b73ffffffffffffffffffffffffffffffffffffffff1614610f92576040517f08c379a0000000000000000000000000000000000000000000000000000000008152600401610f89906127ed565b60405180910390fd5b6004600082815260200190815260200160002060006101000a81549073ffffffffffffffffffffffffffffffffffffffff02191690556001600360008573ffffffffffffffffffffffffffffffffffffffff1673ffffffffffffffffffffffffffffffffffffffff168152602001908152602001600020600082825403925050819055506001600360008473ffffffffffffffffffffffffffffffffffffffff1673ffffffffffffffffffffffffffffffffffffffff16815260200190815260200160002060008282540192505081905550816002600083815260200190815260200160002060006101000a81548173ffffffffffffffffffffffffffffffffffffffff021916908373ffffffffffffffffffffffffffffffffffffffff160217905550808273ffffffffffffffffffffffffffffffffffffffff168473ffffffffffffffffffffffffffffffffffffffff167fddf252ad1be2c89b69c2b068fc378daa952ba7f163c4a11628f55a4df523b3ef60405160405180910390a461111e838383600161184a565b505050565b60006002600083815260200190815260200160002060009054906101000a900473ffffffffffffffffffffffffffffffffffffffff169050919050565b8173ffffffffffffffffffffffffffffffffffffffff168373ffffffffffffffffffffffffffffffffffffffff16036111ce576040517f08c379a00000000000000000000000000000000000000000000000000000000081526004016111c5906128eb565b60405180910390fd5b80600560008573ffffffffffffffffffffffffffffffffffffffff1673ffffffffffffffffffffffffffffffffffffffff16815260200190815260200160002060008473ffffffffffffffffffffffffffffffffffffffff1673ffffffffffffffffffffffffffffffffffffffff16815260200190815260200160002060006101000a81548160ff0219169083151502179055508173ffffffffffffffffffffffffffffffffffffffff168373ffffffffffffffffffffffffffffffffffffffff167f17307eab39ab6107e8899845ad3d59bd9653f200f220920489ca2b5937696c31836040516112bf9190611d2c565b60405180910390a3505050565b6112d7848484610e2a565b6112e384848484611850565b611322576040517f08c379a00000000000000000000000000000000000000000000000000000000081526004016113199061297d565b60405180910390fd5b50505050565b606060405180602001604052806000815250905090565b606061134a82610bf5565b6000611354611328565b90506000815111611374576040518060200160405280600081525061139f565b8061137e846119d7565b60405160200161138f929190612757565b6040516020818303038152906040525b915050919050565b6001816000016000828254019250508190555050565b600081600001549050919050565b600073ffffffffffffffffffffffffffffffffffffffff168273ffffffffffffffffffffffffffffffffffffffff160361143a576040517f08c379a0000000000000000000000000000000000000000000000000000000008152600401611431906129e9565b60405180910390fd5b61144381610d01565b15611483576040517f08c379a000000000000000000000000000000000000000000000000000000000815260040161147a90612a55565b60405180910390fd5b611491600083836001611844565b61149a81610d01565b156114da576040517f08c379a00000000000000000000000000000000000000000000000000000000081526004016114d190612a55565b60405180910390fd5b6001600360008473ffffffffffffffffffffffffffffffffffffffff1673ffffffffffffffffffffffffffffffffffffffff16815260200190815260200160002060008282540192505081905550816002600083815260200190815260200160002060006101000a81548173ffffffffffffffffffffffffffffffffffffffff021916908373ffffffffffffffffffffffffffffffffffffffff160217905550808273ffffffffffffffffffffffffffffffffffffffff16600073ffffffffffffffffffffffffffffffffffffffff167fddf252ad1be2c89b69c2b068fc378daa952ba7f163c4a11628f55a4df523b3ef60405160405180910390a46115e460008383600161184a565b5050565b6115f182610d01565b611630576040517f08c379a000000000000000000000000000000000000000000000000000000000815260040161162790612ae7565b60405180910390fd5b806006600084815260200190815260200160002090816116509190612cb3565b507ff8e1a15aba9398e019f0b49df1a4fde98ee17ae345cb5f6b5e2c27f5033e8ce7826040516116809190611fb3565b60405180910390a15050565b60007f01ffc9a7000000000000000000000000000000000000000000000000000000007bffffffffffffffffffffffffffffffffffffffffffffffffffffffff1916827bffffffffffffffffffffffffffffffffffffffffffffffffffffffff1916149050919050565b6000611701826106e4565b9050611711816000846001611844565b61171a826106e4565b90506004600083815260200190815260200160002060006101000a81549073ffffffffffffffffffffffffffffffffffffffff02191690556001600360008373ffffffffffffffffffffffffffffffffffffffff1673ffffffffffffffffffffffffffffffffffffffff168152602001908152602001600020600082825403925050819055506002600083815260200190815260200160002060006101000a81549073ffffffffffffffffffffffffffffffffffffffff021916905581600073ffffffffffffffffffffffffffffffffffffffff168273ffffffffffffffffffffffffffffffffffffffff167fddf252ad1be2c89b69c2b068fc378daa952ba7f163c4a11628f55a4df523b3ef60405160405180910390a461184081600084600161184a565b5050565b50505050565b50505050565b60006118718473ffffffffffffffffffffffffffffffffffffffff16611aa5565b156119ca578373ffffffffffffffffffffffffffffffffffffffff1663150b7a0261189a610c40565b8786866040518563ffffffff1660e01b81526004016118bc9493929190612dda565b6020604051808303816000875af19250505080156118f857506040513d601f19601f820116820180604052508101906118f59190612e3b565b60015b61197a573d8060008114611928576040519150601f19603f3d011682016040523d82523d6000602084013e61192d565b606091505b506000815103611972576040517f08c379a00000000000000000000000000000000000000000000000000000000081526004016119699061297d565b60405180910390fd5b805181602001fd5b63150b7a0260e01b7bffffffffffffffffffffffffffffffffffffffffffffffffffffffff1916817bffffffffffffffffffffffffffffffffffffffffffffffffffffffff1916149150506119cf565b600190505b949350505050565b6060600060016119e684611ac8565b01905060008167ffffffffffffffff811115611a0557611a04612044565b5b6040519080825280601f01601f191660200182016040528015611a375781602001600182028036833780820191505090505b509050600082602001820190505b600115611a9a578080600190039150507f3031323334353637383961626364656600000000000000000000000000000000600a86061a8153600a8581611a8e57611a8d612e68565b5b04945060008503611a45575b819350505050919050565b6000808273ffffffffffffffffffffffffffffffffffffffff163b119050919050565b600080600090507a184f03e93ff9f4daa797ed6e38ed64bf6a1f0100000000000000008310611b26577a184f03e93ff9f4daa797ed6e38ed64bf6a1f0100000000000000008381611b1c57611b1b612e68565b5b0492506040810190505b6d04ee2d6d415b85acef81000000008310611b63576d04ee2d6d415b85acef81000000008381611b5957611b58612e68565b5b0492506020810190505b662386f26fc100008310611b9257662386f26fc100008381611b8857611b87612e68565b5b0492506010810190505b6305f5e1008310611bbb576305f5e1008381611bb157611bb0612e68565b5b0492506008810190505b6127108310611be0576127108381611bd657611bd5612e68565b5b0492506004810190505b60648310611c035760648381611bf957611bf8612e68565b5b0492506002810190505b600a8310611c12576001810190505b80915050919050565b508054611c279061235e565b6000825580601f10611c395750611c58565b601f016020900490600052602060002090810190611c579190611c5b565b5b50565b5b80821115611c74576000816000905550600101611c5c565b5090565b6000604051905090565b600080fd5b600080fd5b60007fffffffff0000000000000000000000000000000000000000000000000000000082169050919050565b611cc181611c8c565b8114611ccc57600080fd5b50565b600081359050611cde81611cb8565b92915050565b600060208284031215611cfa57611cf9611c82565b5b6000611d0884828501611ccf565b91505092915050565b60008115159050919050565b611d2681611d11565b82525050565b6000602082019050611d416000830184611d1d565b92915050565b600081519050919050565b600082825260208201905092915050565b60005b83811015611d81578082015181840152602081019050611d66565b60008484015250505050565b6000601f19601f8301169050919050565b6000611da982611d47565b611db38185611d52565b9350611dc3818560208601611d63565b611dcc81611d8d565b840191505092915050565b60006020820190508181036000830152611df18184611d9e565b905092915050565b6000819050919050565b611e0c81611df9565b8114611e1757600080fd5b50565b600081359050611e2981611e03565b92915050565b600060208284031215611e4557611e44611c82565b5b6000611e5384828501611e1a565b91505092915050565b600073ffffffffffffffffffffffffffffffffffffffff82169050919050565b6000611e8782611e5c565b9050919050565b611e9781611e7c565b82525050565b6000602082019050611eb26000830184611e8e565b92915050565b611ec181611e7c565b8114611ecc57600080fd5b50565b600081359050611ede81611eb8565b92915050565b60008060408385031215611efb57611efa611c82565b5b6000611f0985828601611ecf565b9250506020611f1a85828601611e1a565b9150509250929050565b600080600060608486031215611f3d57611f3c611c82565b5b6000611f4b86828701611ecf565b9350506020611f5c86828701611ecf565b9250506040611f6d86828701611e1a565b9150509250925092565b600060208284031215611f8d57611f8c611c82565b5b6000611f9b84828501611ecf565b91505092915050565b611fad81611df9565b82525050565b6000602082019050611fc86000830184611fa4565b92915050565b611fd781611d11565b8114611fe257600080fd5b50565b600081359050611ff481611fce565b92915050565b6000806040838503121561201157612010611c82565b5b600061201f85828601611ecf565b925050602061203085828601611fe5565b9150509250929050565b600080fd5b600080fd5b7f4e487b7100000000000000000000000000000000000000000000000000000000600052604160045260246000fd5b61207c82611d8d565b810181811067ffffffffffffffff8211171561209b5761209a612044565b5b80604052505050565b60006120ae611c78565b90506120ba8282612073565b919050565b600067ffffffffffffffff8211156120da576120d9612044565b5b6120e382611d8d565b9050602081019050919050565b82818337600083830152505050565b600061211261210d846120bf565b6120a4565b90508281526020810184848401111561212e5761212d61203f565b5b6121398482856120f0565b509392505050565b600082601f8301126121565761215561203a565b5b81356121668482602086016120ff565b91505092915050565b6000806000806080858703121561218957612188611c82565b5b600061219787828801611ecf565b94505060206121a887828801611ecf565b93505060406121b987828801611e1a565b925050606085013567ffffffffffffffff8111156121da576121d9611c87565b5b6121e687828801612141565b91505092959194509250565b600067ffffffffffffffff82111561220d5761220c612044565b5b61221682611d8d565b9050602081019050919050565b6000612236612231846121f2565b6120a4565b9050828152602081018484840111156122525761225161203f565b5b61225d8482856120f0565b509392505050565b600082601f83011261227a5761227961203a565b5b813561228a848260208601612223565b91505092915050565b600080604083850312156122aa576122a9611c82565b5b60006122b885828601611ecf565b925050602083013567ffffffffffffffff8111156122d9576122d8611c87565b5b6122e585828601612265565b9150509250929050565b6000806040838503121561230657612305611c82565b5b600061231485828601611ecf565b925050602061232585828601611ecf565b9150509250929050565b7f4e487b7100000000000000000000000000000000000000000000000000000000600052602260045260246000fd5b6000600282049050600182168061237657607f821691505b6020821081036123895761238861232f565b5b50919050565b7f4552433732313a20617070726f76616c20746f2063757272656e74206f776e6560008201527f7200000000000000000000000000000000000000000000000000000000000000602082015250565b60006123eb602183611d52565b91506123f68261238f565b604082019050919050565b6000602082019050818103600083015261241a816123de565b9050919050565b7f4552433732313a20617070726f76652063616c6c6572206973206e6f7420746f60008201527f6b656e206f776e6572206f7220617070726f76656420666f7220616c6c000000602082015250565b600061247d603d83611d52565b915061248882612421565b604082019050919050565b600060208201905081810360008301526124ac81612470565b9050919050565b7f4974656d20646f6573206e6f7420657869737400000000000000000000000000600082015250565b60006124e9601383611d52565b91506124f4826124b3565b602082019050919050565b60006020820190508181036000830152612518816124dc565b9050919050565b7f4974656d20646f6573206e6f742062656c6f6e6720746f20796f750000000000600082015250565b6000612555601b83611d52565b91506125608261251f565b602082019050919050565b6000602082019050818103600083015261258481612548565b9050919050565b7f4552433732313a2063616c6c6572206973206e6f7420746f6b656e206f776e6560008201527f72206f7220617070726f76656400000000000000000000000000000000000000602082015250565b60006125e7602d83611d52565b91506125f28261258b565b604082019050919050565b60006020820190508181036000830152612616816125da565b9050919050565b7f4552433732313a20696e76616c696420746f6b656e2049440000000000000000600082015250565b6000612653601883611d52565b915061265e8261261d565b602082019050919050565b6000602082019050818103600083015261268281612646565b9050919050565b7f4552433732313a2061646472657373207a65726f206973206e6f74206120766160008201527f6c6964206f776e65720000000000000000000000000000000000000000000000602082015250565b60006126e5602983611d52565b91506126f082612689565b604082019050919050565b60006020820190508181036000830152612714816126d8565b9050919050565b600081905092915050565b600061273182611d47565b61273b818561271b565b935061274b818560208601611d63565b80840191505092915050565b60006127638285612726565b915061276f8284612726565b91508190509392505050565b7f4552433732313a207472616e736665722066726f6d20696e636f72726563742060008201527f6f776e6572000000000000000000000000000000000000000000000000000000602082015250565b60006127d7602583611d52565b91506127e28261277b565b604082019050919050565b60006020820190508181036000830152612806816127ca565b9050919050565b7f4552433732313a207472616e7366657220746f20746865207a65726f2061646460008201527f7265737300000000000000000000000000000000000000000000000000000000602082015250565b6000612869602483611d52565b91506128748261280d565b604082019050919050565b600060208201905081810360008301526128988161285c565b9050919050565b7f4552433732313a20617070726f766520746f2063616c6c657200000000000000600082015250565b60006128d5601983611d52565b91506128e08261289f565b602082019050919050565b60006020820190508181036000830152612904816128c8565b9050919050565b7f4552433732313a207472616e7366657220746f206e6f6e20455243373231526560008201527f63656976657220696d706c656d656e7465720000000000000000000000000000602082015250565b6000612967603283611d52565b91506129728261290b565b604082019050919050565b600060208201905081810360008301526129968161295a565b9050919050565b7f4552433732313a206d696e7420746f20746865207a65726f2061646472657373600082015250565b60006129d3602083611d52565b91506129de8261299d565b602082019050919050565b60006020820190508181036000830152612a02816129c6565b9050919050565b7f4552433732313a20746f6b656e20616c7265616479206d696e74656400000000600082015250565b6000612a3f601c83611d52565b9150612a4a82612a09565b602082019050919050565b60006020820190508181036000830152612a6e81612a32565b9050919050565b7f45524337323155524953746f726167653a2055524920736574206f66206e6f6e60008201527f6578697374656e7420746f6b656e000000000000000000000000000000000000602082015250565b6000612ad1602e83611d52565b9150612adc82612a75565b604082019050919050565b60006020820190508181036000830152612b0081612ac4565b9050919050565b60008190508160005260206000209050919050565b60006020601f8301049050919050565b600082821b905092915050565b600060088302612b697fffffffffffffffffffffffffffffffffffffffffffffffffffffffffffffffff82612b2c565b612b738683612b2c565b95508019841693508086168417925050509392505050565b6000819050919050565b6000612bb0612bab612ba684611df9565b612b8b565b611df9565b9050919050565b6000819050919050565b612bca83612b95565b612bde612bd682612bb7565b848454612b39565b825550505050565b600090565b612bf3612be6565b612bfe818484612bc1565b505050565b5b81811015612c2257612c17600082612beb565b600181019050612c04565b5050565b601f821115612c6757612c3881612b07565b612c4184612b1c565b81016020851015612c50578190505b612c64612c5c85612b1c565b830182612c03565b50505b505050565b600082821c905092915050565b6000612c8a60001984600802612c6c565b1980831691505092915050565b6000612ca38383612c79565b9150826002028217905092915050565b612cbc82611d47565b67ffffffffffffffff811115612cd557612cd4612044565b5b612cdf825461235e565b612cea828285612c26565b600060209050601f831160018114612d1d5760008415612d0b578287015190505b612d158582612c97565b865550612d7d565b601f198416612d2b86612b07565b60005b82811015612d5357848901518255600182019150602085019450602081019050612d2e565b86831015612d705784890151612d6c601f891682612c79565b8355505b6001600288020188555050505b505050505050565b600081519050919050565b600082825260208201905092915050565b6000612dac82612d85565b612db68185612d90565b9350612dc6818560208601611d63565b612dcf81611d8d565b840191505092915050565b6000608082019050612def6000830187611e8e565b612dfc6020830186611e8e565b612e096040830185611fa4565b8181036060830152612e1b8184612da1565b905095945050505050565b600081519050612e3581611cb8565b92915050565b600060208284031215612e5157612e50611c82565b5b6000612e5f84828501612e26565b91505092915050565b7f4e487b7100000000000000000000000000000000000000000000000000000000600052601260045260246000fdfea2646970667358221220421decabd997ef126e2da96711f317a55cffb58c7ebbfa08e7eebca91aa9f7f964736f6c63430008140033",
  "linkReferences": {},
  "deployedLinkReferences": {}
}