{
  "_format": "hh-sol-artifact-1",
  "contractName": "EncryptionContract",
  "sourceName": "contracts/EncryptionContract.sol",
  "abi": [
    {
      "inputs": [
        {
          "internalType": "bytes32",
          "name": "_secretKey",
          "type": "bytes32"
        }
      ],
      "stateMutability": "nonpayable",
      "type": "constructor"
    },
    {
      "inputs": [
        {
          "internalType": "string",
          "name": "_letter",
          "type": "string"
        }
      ],
      "name": "encryptLetter",
      "outputs": [
        {
          "internalType": "bytes32",
          "name": "",
          "type": "bytes32"
        }
      ],
      "stateMutability": "view",
      "type": "function"
    },
    {
      "inputs": [
        {
          "internalType": "string",
          "name": "_word",
          "type": "string"
        }
      ],
      "name": "encryptWord",
      "outputs": [
        {
          "internalType": "bytes32[5]",
          "name": "",
          "type": "bytes32[5]"
        }
      ],
      "stateMutability": "view",
      "type": "function"
    },
    {
      "inputs": [
        {
          "internalType": "bytes32[5]",
          "name": "_encryptedWordArray",
          "type": "bytes32[5]"
        },
        {
          "internalType": "string[5]",
          "name": "_wordArray",
          "type": "string[5]"
        }
      ],
      "name": "isCorrect",
      "outputs": [
        {
          "internalType": "bool",
          "name": "",
          "type": "bool"
        }
      ],
      "stateMutability": "view",
      "type": "function"
    },
    {
      "inputs": [
        {
          "internalType": "string",
          "name": "str",
          "type": "string"
        }
      ],
      "name": "pickCharsFromString",
      "outputs": [
        {
          "internalType": "bytes32[5]",
          "name": "",
          "type": "bytes32[5]"
        }
      ],
      "stateMutability": "view",
      "type": "function"
    }
  ],
  "bytecode": "0x60a060405234801561001057600080fd5b50604051610a72380380610a728339818101604052810190610032919061007b565b8060808181525050506100a8565b600080fd5b6000819050919050565b61005881610045565b811461006357600080fd5b50565b6000815190506100758161004f565b92915050565b60006020828403121561009157610090610040565b5b600061009f84828501610066565b91505092915050565b6080516109af6100c3600039600061025801526109af6000f3fe608060405234801561001057600080fd5b506004361061004c5760003560e01c8063195d7de6146100515780637b98036a1461008157806398e148d7146100b1578063afa7fe3a146100e1575b600080fd5b61006b60048036038101906100669190610421565b610111565b604051610078919061051f565b60405180910390f35b61009b60048036038101906100969190610421565b610129565b6040516100a8919061051f565b60405180910390f35b6100cb60048036038101906100c691906106eb565b6101d5565b6040516100d89190610762565b60405180910390f35b6100fb60048036038101906100f69190610421565b610253565b604051610108919061078c565b60405180910390f35b6101196102a5565b61012282610129565b9050919050565b6101316102a5565b600082905061013e6102a5565b60005b8251811080156101515750600581105b156101ca5761019b83828151811061016c5761016b6107a7565b5b602001015160f81c60f81b6040516020016101879190610823565b604051602081830303815290604052610253565b8282600581106101ae576101ad6107a7565b5b60200201818152505080806101c290610877565b915050610141565b508092505050919050565b600080600090505b60058110156102475760006102088483600581106101fe576101fd6107a7565b5b6020020151610253565b90508085836005811061021e5761021d6107a7565b5b6020020151146102335760009250505061024d565b50808061023f90610877565b9150506101dd565b50600190505b92915050565b6000817f0000000000000000000000000000000000000000000000000000000000000000604051602001610288929190610951565b604051602081830303815290604052805190602001209050919050565b6040518060a00160405280600590602082028036833780820191505090505090565b6000604051905090565b600080fd5b600080fd5b600080fd5b600080fd5b6000601f19601f8301169050919050565b7f4e487b7100000000000000000000000000000000000000000000000000000000600052604160045260246000fd5b61032e826102e5565b810181811067ffffffffffffffff8211171561034d5761034c6102f6565b5b80604052505050565b60006103606102c7565b905061036c8282610325565b919050565b600067ffffffffffffffff82111561038c5761038b6102f6565b5b610395826102e5565b9050602081019050919050565b82818337600083830152505050565b60006103c46103bf84610371565b610356565b9050828152602081018484840111156103e0576103df6102e0565b5b6103eb8482856103a2565b509392505050565b600082601f830112610408576104076102db565b5b81356104188482602086016103b1565b91505092915050565b600060208284031215610437576104366102d1565b5b600082013567ffffffffffffffff811115610455576104546102d6565b5b610461848285016103f3565b91505092915050565b600060059050919050565b600081905092915050565b6000819050919050565b6000819050919050565b61049d8161048a565b82525050565b60006104af8383610494565b60208301905092915050565b6000602082019050919050565b6104d18161046a565b6104db8184610475565b92506104e682610480565b8060005b838110156105175781516104fe87826104a3565b9650610509836104bb565b9250506001810190506104ea565b505050505050565b600060a08201905061053460008301846104c8565b92915050565b600067ffffffffffffffff821115610555576105546102f6565b5b602082029050919050565b600080fd5b61056e8161048a565b811461057957600080fd5b50565b60008135905061058b81610565565b92915050565b60006105a461059f8461053a565b610356565b905080602084028301858111156105be576105bd610560565b5b835b818110156105e757806105d3888261057c565b8452602084019350506020810190506105c0565b5050509392505050565b600082601f830112610606576106056102db565b5b6005610613848285610591565b91505092915050565b600067ffffffffffffffff821115610637576106366102f6565b5b602082029050919050565b60006106556106508461061c565b610356565b9050806020840283018581111561066f5761066e610560565b5b835b818110156106b657803567ffffffffffffffff811115610694576106936102db565b5b8086016106a189826103f3565b85526020850194505050602081019050610671565b5050509392505050565b600082601f8301126106d5576106d46102db565b5b60056106e2848285610642565b91505092915050565b60008060c08385031215610702576107016102d1565b5b6000610710858286016105f1565b92505060a083013567ffffffffffffffff811115610731576107306102d6565b5b61073d858286016106c0565b9150509250929050565b60008115159050919050565b61075c81610747565b82525050565b60006020820190506107776000830184610753565b92915050565b6107868161048a565b82525050565b60006020820190506107a1600083018461077d565b92915050565b7f4e487b7100000000000000000000000000000000000000000000000000000000600052603260045260246000fd5b60007fff0000000000000000000000000000000000000000000000000000000000000082169050919050565b6000819050919050565b61081d610818826107d6565b610802565b82525050565b600061082f828461080c565b60018201915081905092915050565b7f4e487b7100000000000000000000000000000000000000000000000000000000600052601160045260246000fd5b6000819050919050565b60006108828261086d565b91507fffffffffffffffffffffffffffffffffffffffffffffffffffffffffffffffff82036108b4576108b361083e565b5b600182019050919050565b600081519050919050565b600081905092915050565b60005b838110156108f35780820151818401526020810190506108d8565b60008484015250505050565b600061090a826108bf565b61091481856108ca565b93506109248185602086016108d5565b80840191505092915050565b6000819050919050565b61094b6109468261048a565b610930565b82525050565b600061095d82856108ff565b9150610969828461093a565b602082019150819050939250505056fea26469706673582212204da6884b8550aeeec88a4679e942f21b352ddcc546ddaaaf9cc3c0471648646e64736f6c63430008140033",
  "linkReferences": {},
  "deployedLinkReferences": {}
}